:020000040000FA
:200000000C945D000C9485000C9485000C9485000C9485000C9485000C9485000C948500E0
:200020000C9485000C9485000C9485000C9485000C9485000C9485000C9485000C94850098
:200040000C94C7030C9485000C9495030C946F030C9485000C9485000C9485000C94850033
:200060000C9485000C94850000000000250028002B000000000800020100000304070000A5
:2000800000000000000000000000240027002A0001020408102040800102040810200102AA
:2000A000040810200404040404040404020202020202030303030303750811241FBECFEF79
:2000C000D8E0DEBFCDBF11E0A0E0B1E0E4E5F1E102C005900D92A035B107D9F723E0A0E5C7
:2000E000B1E001C01D92A631B207E1F710E0CDE5D0E004C02197FE010E94A208CC35D107A5
:20010000C9F70E9411040C94A8080C940000AF92BF92CF92DF92EF92FF920F931F93CF934C
:20012000DF936C017B018B01040F151FEB015E01AE18BF08C017D10759F06991D601ED9172
:20014000FC910190F081E02DC6010995892B79F7C501DF91CF911F910F91FF90EF90DF9017
:20016000CF90BF90AF900895FC01538D448D252F30E0842F90E0821B930B541710F0CF96B5
:20018000089501970895FC01918D828D981761F0A28DAE0FBF2FB11D5D968C91928D9F5F8E
:2001A0009F73928F90E008958FEF9FEF0895FC01918D828D981731F0828DE80FF11D858D36
:2001C00090E008958FEF9FEF0895FC01918D228D892F90E0805C9F4F821B91098F739927B4
:2001E000089589E792E00E94E50021E0892B09F420E0822F089580E090E0892B29F00E94BA
:20020000F10081110C9400000895FC01A48DA80FB92FB11DA35ABF4F2C91848D90E00196A3
:200220008F739927848FA689B7892C93A089B1898C91837080648C93938D848D981306C0A3
:200240000288F389E02D80818F7D80830895EF92FF920F931F93CF93DF93EC0181E0888F3F
:200260009B8D8C8D98131AC0E889F989808185FF15C09FB7F894EE89FF896083E889F989B4
:2002800080818370806480839FBF81E090E0DF91CF911F910F91FF90EF900895F62E0B8DCD
:2002A00010E00F5F1F4F0F731127E02E8C8D8E110CC00FB607FCFACFE889F989808185FF1D
:2002C000F5CFCE010E940501F1CFEB8DEC0FFD2FF11DE35AFF4FF0829FB7F8940B8FEA898A
:2002E000FB8980818062CFCF682F89E792E00C942701CF93DF93EC01888D8823B9F0AA895B
:20030000BB89E889F9898C9185FD03C0808186FD0DC00FB607FCF7CF8C9185FFF2CF808102
:2003200085FFEDCFCE010E940501E9CFDF91CF91089590E0FC01EE58FF4F2491FC01E057F7
:20034000FF4F3491FC01EC55FF4FE491EE23C9F0222339F0233001F1A8F4213019F12230C3
:2003600029F1F0E0EE0FFF1FE859FF4FA591B4918FB7F894EC91611126C030953E233C93D2
:200380008FBF08952730A9F02830C9F0243049F7809180008F7D03C0809180008F778093D3
:2003A0008000DFCF84B58F7784BDDBCF84B58F7DFBCF8091B0008F778093B000D2CF80919A
:2003C000B0008F7DF9CF3E2BDACFCF93DF9390E0FC01E057FF4F24918C559F4FFC0184912B
:2003E0008823D1F090E0880F991FFC01EA57FF4FA591B491FC01E859FF4FC591D491611112
:200400000EC09FB7F8948C91E22FE0958E238C932881E223E8839FBFDF91CF9108958FB78F
:20042000F894EC91E22BEC938FBFF6CF3FB7F8948091510190915201A0915301B0915401A0
:2004400026B5A89B05C02F3F19F00196A11DB11D3FBFBA2FA92F982F8827BC01CD01620FEE
:20046000711D811D911D42E0660F771F881F991F4A95D1F708958F929F92AF92BF92CF928D
:20048000DF92EF92FF924B015C010E9416026B017C010E9416026C197D098E099F09683EE3
:2004A000734081059105A8F321E0821A9108A108B10888EEC80E83E0D81EE11CF11C8114F6
:2004C0009104A104B10429F7FF90EF90DF90CF90BF90AF909F908F9008951F93CF93DF9332
:2004E000182FC3E0D0E061E0812F0E9499016EE170E080E090E00E943B0260E0812F0E9455
:2005000099016EE170E080E090E00E943B02219751F7DF91CF911F9108958091750290912D
:2005200076020196909376028093750285E10C947401209168013091690180917302909120
:2005400074022032310511F4807F08952034310511F4807E08952038310511F4807C0895A6
:200560002115314009F48078089589E792E00E94E500892BD1F389E792E00E94C30008957D
:20058000CF93C82F0E94B502803251F484E10E9474018C2F0E94740180E1CF910C9474018E
:2005A00080917502909176020196909376028093750285E1F2CF0E94B502803231F484E1A2
:2005C0000E94740180E10C94740180917502909176020196909376028093750285E1F3CF89
:2005E0000F931F93CF93DF938C01C0E7D1E0CE01805791408017910724F40E94B5028993BB
:20060000F6CFDF91CF911F910F9108958EBD00000DB407FEFDCF8EB508951F93CF93DF9315
:20062000162FD42FC22F0E940603812F0E9406038D2F0E9406038C2FDF91CF911F910C9439
:200640000603EF92FF920F931F93CF93DF93EC018B01CB010E94F00260E087E00E9499019B
:2006600080E7E82E81E0F82E0C0F1D1FC017D10781F0F70121917F014C2F6D2F80EC0E94B0
:200680000D036DE270E080E090E00E943B022196EDCF61E087E00E94990180E1DF91CF9174
:2006A0001F910F91FF90EF900895CF93DF93D82FC92F60E087E00E94990120E04D2F6C2F72
:2006C0008CE40E940D036EE170E080E090E00E943B0261E087E0DF91CF910C9499011F9247
:2006E0000F920FB60F9211242F933F934F935F936F937F938F939F93AF93BF93EF93FF9346
:2007000089E792E00E940501FF91EF91BF91AF919F918F917F916F915F914F913F912F91EF
:200720000F900FBE0F901F9018951F920F920FB60F9211242F938F939F93EF93FF93E091CA
:200740008902F0918A028081E0918F02F091900282FD1BC09081809192028F5F8F7320913A
:200760009302821741F0E0919202F0E0E758FD4F958F80939202FF91EF919F918F912F91CF
:200780000F900FBE0F901F9018958081F4CF1F920F920FB60F9211242F933F938F939F9359
:2007A000AF93BF938091550190915601A0915701B09158013091500123E0230F2D3758F5AB
:2007C0000196A11DB11D209350018093550190935601A0935701B093580180915101909164
:2007E0005201A0915301B09154010196A11DB11D8093510190935201A0935301B09354016E
:20080000BF91AF919F918F913F912F910F900FBE0F901F90189526E8230F0296A11DB11D9D
:20082000D2CFCF93DF93CDB7DEB7E0970FB6F894DEBF0FBECDBF789484B5826084BD84B5CB
:20084000816084BD85B5826085BD85B5816085BD80916E00816080936E00109281008091A6
:20086000810082608093810080918100816080938100809180008160809380008091B100B3
:2008800084608093B1008091B00081608093B00080917A00846080937A0080917A008260E2
:2008A00080937A0080917A00816080937A0080917A00806880937A001092C100E091890253
:2008C000F0918A0282E08083E0918502F09186021082E0918702F091880287E680831092FC
:2008E0009102E0918D02F0918E0286E08083E0918B02F0918C02808180618083E0918B02FB
:20090000F0918C02808188608083E0918B02F0918C02808180688083E0918B02F0918C02D6
:2009200080818F7D808380E3E2E0F1E0DE01119601900D928A95E1F78E010F5F1F4F7E011A
:2009400021E3E20EF11CE8ECCE2ED12CF801819191918F01B601681B790B89E792E00E94CA
:2009600027010E151F0591F742E050E064E471E089E792E00E94870061E087E00E94E5015A
:2009800087E090E00E946D0261E088E00E94E50188E090E00E946D0261E089E00E94E50123
:2009A00089E090E00E946D024BE8642E772473945AE9252E50E0352E60E0462E60E0562E45
:2009C00088248394912C809177029091780261E0892B09F460E087E00E9499018091750215
:2009E0009091760261E0892B09F460E088E00E9499012FB7F8948091550190915601A09106
:200A00005701B09158012FBF4091590150915A0160915B0170915C018C019D01041B150B7A
:200A2000260B370BB901A801483251056105710518F18093590190935A01A0935B01B0936E
:200A40005C011091010180910001113C20F081958093000102C01032D0F380910001180FFD
:200A60001093010161E089E00E94E50111112BC060E089E00E94990189E792E00E94E50044
:200A8000892B09F45EC20E94B502813509F4CDC208F0EEC0813409F479C108F05DC0803390
:200AA00009F45BC1813309F45FC1803209F00DC3809175029091760201969093760280936B
:200AC000750285E133C21F3F11F461E0D2CFEBE7F0E08491833021F138F48130B9F082304B
:200AE000D1F017FDF2CFC4CF873031F1883061F18430B9F780918000806280938000812FD0
:200B000090E090938B0080938A00B6CF84B5806884BD17BDB1CF84B5806284BD18BDACCF33
:200B200080918000806880938000812F90E09093890080938800A0CF8091B0008068809317
:200B4000B0001093B30098CF8091B00080628093B0001093B40090CF853409F42EC18035B2
:200B600009F430C1823409F0B0C284E190E00E94F0022091700120935D0180917101809334
:200B80005E018091720180935F018091730180936001809174018093610180917501809371
:200BA000620180917601809363018091770180936401809178018093650180917A0190E0D3
:200BC000982F882730917B01830F911D909367018093660180917C0190E0982F88273091E8
:200BE0007D01830F911D909369018093680180917E0190E0982F882730917F01830F911D37
:200C000090936B0180936A018091800190E0B0E0A0E0BA2FA92F982F882730918101830FA9
:200C2000911DA11DB11DDC01992788274091820150E0542F4427052E000C660B770B840FF7
:200C4000951FA61FB71F30918301830F911DA11DB11D80936C0190936D01A0936E01B0933E
:200C60006F0181E0203E08F480E08093720279C0813609F424C1C0F4863509F4C7C18036E6
:200C800009F41BC1853509F020C20E94B502182F0E94B50290E0982F8827810F911D9093A6
:200CA0007402809373025DC0843709F456C1853709F4EAC1843609F008C20E94B502082FD9
:200CC00010E0102F00270E94B502080F111D0E94B502863409F0FAC0C8010E94F0020E945B
:200CE000B502803209F0E4CE84E10E9474010E9499025C0130E7C32E31E0D32EC601805712
:200D00009140801791070CF0DDC00E9499028A159B0531F0C5010E9455030E9499025C0143
:200D2000E0907302F0907402F60120814E2D6F2D80E40E940D03F60121814E2D6F2D88E4F7
:200D40000E940D03FFEFEF1AFF0AF0927402E092730222E0C20ED11CD1CF109276021092E7
:200D600075020E94DB02EDC00E94B502803209F09FCE84E10E94740147E050E067E471E0F0
:200D800089E792E00E94870080E1D0C00E94B502813879F020F4803841F080E007C08238FE
:200DA00051F08339D1F783E501C082E00E94C002C8C081E0FBCF82E1F9CF85E090E00E942A
:200DC000F002CFCF8091770290917802892B49F6609172028AE00E94990161E08AE00E9413
:200DE000E5011FB7F89480917102811126C0EEEAF0E08491F1019491E82FF0E0EE0FFF1FD9
:200E0000EA57FF4FA591B4918C91982321F461E08AE00E94990161E08AE00E94E5018CB580
:200E200080618CBD8CB580648CBD61E08DE00E94E50161E08BE00E94E501809171028F5F3E
:200E4000809371021FBF80917002882351F08FB7F89490917002913021F49DB39DB39DBB8C
:200E60008FBF83E58CBD1DBC60E08DE00E94990164E170E080E090E00E943B021091720258
:200E800061E061278AE00E949901C3010197F1F7612F8AE00E94990162E370E080E090E004
:200EA0000E943B0220E040E063E58CEA0E940D03909278028092770254CF0E94B5020E947E
:200EC000B5024FCFC5010E9455035ECF853409F09BC080916A0190916B0180179107A0F07B
:200EE000E0907302F0907402EE0CFF1C0132110500F160E270E0C7010E94210330E2E30EA5
:200F0000F11C00521109F2CF80917502909176020196909376028093750211E10E94B5026F
:200F2000803269F484E10E947401812F0E94740108C0B801C7010E94210310E1EFCF0E94FF
:200F40008D024114510409F43ECD0E94F100882309F439CD0E94000036CD0E94B502E82EFB
:200F60000E94B502082F0E94B502182F0E94B502803219F00E948D02E4CFF12CFE2CEE24F0
:200F8000E00EF11C84E10E947401163421F5D12CC12CCE14DF040CF0F7CE00917302109163
:200FA000740220E0402F612F80E20E940D030E94740120E0402F612F88E20E940D030E94D4
:200FC00074010F5F1F4F109374020093730282E0C80ED11CDECF1534B9F400917302109130
:200FE0007402000F111FE00EF11E0E151F0509F4CBCE2FEF402F612F80EA0E940D030E9487
:2010000074010F5F1F4FF1CF81E190CF84E090E00E94F002209173014091720160917101CA
:20102000809170010E940D03C1CE10927602109275029FB7F89480917102882319F08150CF
:201040008093710280917102811105C08CB58F7B8CBD109270029FBF60E08BE00E94E501F6
:2010600060E08DE00E94E5016091720281E068278AE00E94990160E08AE00E94E50110926C
:201080007802109277026DCE0E94B502803209F00FCD84E10E94740120E040E060E080E361
:2010A0000E940D030E94740120E041E060E080E30E940D030E94740120E042E060E080E315
:2010C0000E940D030E9474015FCE8091750290917602019690937602809375020E94B502E4
:2010E000803209F0EECC82E121CFE9E7F2E01382128288EE93E0A0E0B0E084839583A6832C
:20110000B78386E391E09183808385EC90E09587848784EC90E09787868780EC90E0918B99
:20112000808B81EC90E0938B828B82EC90E0958B848B86EC90E0978B868B118E128E138E9A
:20114000148E0895EE0FFF1F0590F491E02D0994F894FFCF088056006700650054006200B7
:201160004D0084005F0064006F00590053008400590087005A0067005C004F0055005F003C
:20118000550089004B000000000027018700B4007901E500C300D7000D0A00415652204961
:2011A00053500000FFFFFFFFFFFFFFFFFFFFFFFFFFFFFFFFFFFFFFFFFFFFFFFFFFFFFFFFA8
:201200001F93CF93DF93EC016A017B012115310579F4E881F9810190F081E02D642FDF91A6
:20122000CF911F910F91FF90EF90DF90CF9009942A303105E9F477FF1AC06DE20E948F0840
:201240008C0144275527BA014C195D096E097F092AE0CE010E94AC08800F911FDF91CF9157
:201260001F910F91FF90EF90DF90CF9008952AE0B701A601CE01DF91CF911F910F91FF90BE
:20128000EF90DF90CF900C94AC080F931F93CF93DF93EC019A01AB01662757FD6095762FD6
:2012A0000E94FB088C01CE010E949608800F911FDF91CF911F910F9108952115310541F450
:2012C000DC01ED91FC910190F081E02D642F09940C94AC089A01462F50E060E070E00C9423
:2012E0005D090F931F93CF93DF93EC010E942905688779878A879B87E881F9810680F781A0
:20130000E02DCE01099597FF15C00E942905088519852A853B85601B710B820B930B0C81CF
:201320001D812E813F81601771078207930720F38FEF9FEFDF91CF911F910F910895AF9271
:20134000BF92CF92DF92EF92FF920F931F93CF93DF936C01790121153105B9F08A01C0E009
:20136000D0E0A62EBB24A7FCB094C6010E94710997FD0EC08A159B0559F0F80181938F01B9
:201380002196CE15DF0589F703C080E090E001C0CE01DF91CF911F910F91FF90EF90DF908F
:2013A000CF90BF90AF90089508950E9492050E94D4090E948E00C2E9D6E00E941F02209743
:2013C000E1F30E949206F9CF089504D06894B11178C008955BD088F09F5790F0B92F992772
:2013E000B751A0F0D1F0660F771F881F991F1AF0BA95C9F712C0B13081F062D0B1E008958D
:201400005FC0672F782F8827B85F39F0B93FCCF3869577956795B395D9F73EF49095809523
:20142000709561957F4F8F4F9F4F089597F99F6780E870E060E008959FEF80EC0895002494
:201440000A941616170618060906089500240A9412161306140605060895092E0394000C3C
:2014600011F4882352F0BB0F40F4BF2B11F460FF04C06F5F7F4F8F4F9F4F089557FD905829
:20148000440F551F59F05F3F71F04795880F97FB991F61F09F3F79F08795089512161306EE
:2014A0001406551FF2CF4695F1DF08C0161617061806991FF1CF869571056105089408955B
:2014C000E894BB2766277727CB0197F908950BD0C4CFB5DF28F0BADF18F0952309F0A6CFA9
:2014E000ABCF1124EECFCADFA0F3959FD1F3950F50E0551F629FF001729FBB27F00DB11D54
:20150000639FAA27F00DB11DAA1F649F6627B00DA11D661F829F2227B00DA11D621F739F5C
:20152000B00DA11D621F839FA00D611D221F749F3327A00D611D231F849F600D211D822FC8
:20154000762F6A2F11249F5750408AF0E1F088234AF0EE0FFF1FBB1F661F771F881F9150CA
:201560005040A9F79E3F510570F060CFAACF5F3FECF3983EDCF3869577956795B795F795E3
:20158000E7959F5FC1F7FE2B880F911D9695879597F9089597FB072E16F4009407D077FD87
:2015A00009D00E941F0B07FC05D03EF4909581959F4F0895709561957F4F0895A1E21A2E85
:2015C000AA1BBB1BFD010DC0AA1FBB1FEE1FFF1FA217B307E407F50720F0A21BB30BE40B03
:2015E000F50B661F771F881F991F1A9469F760957095809590959B01AC01BD01CF010895BB
:20160000052E97FB1EF400940E94170B57FD07D00E94DE0A07FC03D04EF40C94170B509527
:201620004095309521953F4F4F4F5F4F089590958095709561957F4F8F4F9F4F0895AA1BB2
:20164000BB1B51E107C0AA1FBB1FA617B70710F0A61BB70B881F991F5A95A9F780959095F2
:20166000BC01CD010895EE0FFF1F0590F491E02D099410E0C6ECD0E004C0FE010E94350B6C
:201680002296C83CD107C9F7F894FFCF00005F0680008801040000FF07063A3A002000305A
:2016A0002C20300030786666662C20307866666600000000008C024F08F7026B02DF02DEA4
:2016C0000200000000E3064F0865067E067006C1060D0A006E616E00696E66006F766600C0
:2016E0002E00FFFFFFFFFFFFFFFFFFFFFFFFFFFFFFFFFFFFFFFFFFFFFFFFFFFFFFFFFFFFDA
:201700000D0A006E616E00696E66006F7666002E0000FFFFFFFFFFFFFFFFFFFFFFFFFFFFCD
:207800000C94343C0C94513C0C94513C0C94513C0C94513C0C94513C0C94513C0C94513C1D
:207820000C94513C0C94513C0C94513C0C94513C0C94513C0C94513C0C94513C0C94513CE0
:207840000C94513C0C94513C0C94513C0C94513C0C94513C0C94513C0C94513C0C94513CC0
:207860000C94513C0C94513C11241FBECFEFD8E0DEBFCDBF11E0A0E0B1E0ECE9FFE702C07E
:2078800005900D92A230B107D9F712E0A2E0B1E001C01D92AD30B107E1F70E942D3D0C94CC
:2078A000CC3F0C94003C982F9595959595959595905D8F708A307CF0282F295A8091C000B5
:2078C00085FFFCCF9093C6008091C00085FFFCCF2093C6000895282F205DF0CF982F8091CF
:2078E000C00085FFFCCF9093C6000895EF92FF920F931F93EE24FF2487018091C00087FD7B
:2079000017C00894E11CF11C011D111D81E4E81682E4F8068FE0080780E0180770F3E09106
:207920000401F091050109958091C00087FFE9CF8091C6001F910F91FF90EF9008950E949A
:20794000763C982F8091C00085FFFCCF9093C60091362CF490330CF09053892F08959755DB
:20796000892F08951F930E949F3C182F0E949F3C1295107F810F1F9108951F93182F882308
:2079800021F00E94763C1150E1F71F9108951F93182F0E94763C803249F0809103018F5FC1
:2079A000809303018530C1F01F9108958091C00085FFFCCF84E18093C6008091C00085FF4A
:2079C000FCCF1093C6008091C00085FFFCCF80E18093C6001F910895E0910401F0910501CF
:2079E00009951F9108950E94763C803241F0809103018F5F80930301853081F00895809177
:207A0000C00085FFFCCF84E18093C6008091C00085FFFCCF80E18093C6000895E0910401AC
:207A2000F09105010995089540E951E08823A1F02D9A28EE33E0FA013197F1F72150304072
:207A4000D1F72D9828EE33E0FA013197F1F721503040D1F7815061F708953F924F925F92B3
:207A60006F927F928F929F92AF92BF92CF92DF92EF92FF920F931F93CF93DF93000080E1A3
:207A80008093C4001092C50088E18093C10086E08093C2005098589A259A81E00E94143D43
:207AA00024E1F22E9EE1E92E85E9D82E0FE0C02E10E1B12EAA24A394B1E49B2EA6E58A2E44
:207AC000F2E57F2EE0E26E2E79E4572E63E5462E50E5352E0E94763C8033B1F18133B9F187
:207AE000803409F46FC0813409F476C0823409F485C0853409F488C0803531F1823521F128
:207B0000813511F1853509F485C0863509F48DC0843609F496C0843709F403C1853709F46A
:207B200072C1863709F466C0809103018F5F80930301853079F6E0910401F0910501099559
:207B40000E94763C803351F60E94F33CC3CF0E94763C803249F78091C00085FFFCCFF0928C
:207B6000C6008091C00085FFFCCF9092C6008091C00085FFFCCF8092C6008091C00085FFEA
:207B8000FCCF7092C6008091C00085FFFCCF6092C6008091C00085FFFCCF5092C6008091A1
:207BA000C00085FFFCCF4092C6008091C00085FFFCCF3092C6008091C00085FFFCCFB09214
:207BC000C60088CF0E94763C863808F4BDCF0E94763C0E94F33C7ECF0E94763C803809F473
:207BE0009CC0813809F40BC1823809F43CC1883909F48FC080E00E94C73C6CCF84E10E949F
:207C0000BD3C0E94F33C66CF85E00E94BD3C0E94F33C60CF0E94763C809306010E94763CA3
:207C2000809307010E94F33C55CF0E94763C803309F41DC183E00E94BD3C80E00E94C73C4F
:207C400049CF0E94763C809309020E94763C8093080280910C028E7F80930C020E94763C88
:207C6000853409F415C18091080290910902892B89F000E010E00E94763CF801E85FFE4F53
:207C800080830F5F1F4F80910802909109020817190788F30E94763C803209F045CF8091E0
:207CA0000C0280FF01C16091060170910701660F771F7093070160930601A0910802B091E8
:207CC00009021097C9F0E8E0F1E09B01AD014E0F5F1FF999FECF32BD21BD819180BDFA9A6C
:207CE000F99A2F5F3F4FE417F50799F76A0F7B1F70930701609306018091C00085FFFCCF16
:207D0000F092C6008091C00085FFFCCFB092C600E1CE83E00E94C73CDDCE82E00E94C73C8A
:207D2000D9CE0E94763C809309020E94763C809308028091060190910701880F991F909306
:207D40000701809306010E94763C853409F4A6C080910C028E7F80930C020E94763C80323E
:207D600009F0B8CE8091C00085FFFCCFF092C600609108027091090261157105B9F140E05F
:207D800050E080910C02A82FA170B82FB27011C0BB2309F45CC0E0910601F0910701319613
:207DA000F0930701E09306014F5F5F4F46175707E8F4AA2369F3F999FECF209106013091CA
:207DC000070132BD21BDF89A90B58091C00085FFFCCF9093C6002F5F3F4F30930701209354
:207DE00006014F5F5F4F4617570718F38091C00085FDE5CE8091C00085FFF8CFE0CE81E029
:207E00000E94C73C67CE0E94763C803209F08CCE8091C00085FFFCCFF092C6008091C000F6
:207E200085FFFCCFE092C6008091C00085FFFCCFD092C6008091C00085FFFCCFC092C6003B
:207E40008091C00085FFFCCFB092C60043CEE0910601F091070194918091C00085FFFCCFA3
:207E60009093C6009CCF80E10E94C73C33CE0E94763C0E94763C182F0E94763C112309F433
:207E800083C0113009F484C08FE00E94C73C22CE80910C02816080930C02E5CE80910C0226
:207EA000816080930C0259CF809107018823880F880B8A2180930B0280910601909107019E
:207EC000880F991F90930701809306018091080280FF09C0809108029091090201969093AA
:207EE000090280930802F894F999FECF1127E0910601F0910701C8E0D1E0809108029091A1
:207F00000902103091F40091570001700130D9F303E000935700E895009157000170013067
:207F2000D9F301E100935700E895099019900091570001700130D9F301E000935700E8954C
:207F40001395103498F011270091570001700130D9F305E000935700E8950091570001707A
:207F60000130D9F301E100935700E8953296029709F0C7CF103011F00296E5CF11248091F8
:00000001FF
